{
  "contractName": "ContentTracking",
  "abi": [
    {
      "constant": true,
      "inputs": [
        {
          "internalType": "uint256",
          "name": "",
          "type": "uint256"
        }
      ],
      "name": "documentArray",
      "outputs": [
        {
          "internalType": "bytes32",
          "name": "",
          "type": "bytes32"
        }
      ],
      "payable": false,
      "stateMutability": "view",
      "type": "function"
    },
    {
      "constant": false,
      "inputs": [
        {
          "internalType": "string",
          "name": "document",
          "type": "string"
        }
      ],
      "name": "storeDocument",
      "outputs": [],
      "payable": false,
      "stateMutability": "nonpayable",
      "type": "function"
    },
    {
      "constant": true,
      "inputs": [
        {
          "internalType": "string",
          "name": "document",
          "type": "string"
        }
      ],
      "name": "newDocument",
      "outputs": [
        {
          "internalType": "bool",
          "name": "",
          "type": "bool"
        }
      ],
      "payable": false,
      "stateMutability": "view",
      "type": "function"
    },
    {
      "constant": true,
      "inputs": [
        {
          "internalType": "string",
          "name": "document",
          "type": "string"
        }
      ],
      "name": "returnHashedDocument",
      "outputs": [
        {
          "internalType": "bytes32",
          "name": "",
          "type": "bytes32"
        }
      ],
      "payable": false,
      "stateMutability": "pure",
      "type": "function"
    }
  ],
  "bytecode": "0x608060405234801561001057600080fd5b5061060c806100206000396000f3fe608060405234801561001057600080fd5b506004361061004c5760003560e01c8063a4fe70f614610051578063b644f35014610120578063cbdd51ea14610199578063efca72b11461026c575b600080fd5b61010a6004803603602081101561006757600080fd5b810190808035906020019064010000000081111561008457600080fd5b82018360208201111561009657600080fd5b803590602001918460018302840111640100000000831117156100b857600080fd5b91908080601f016020809104026020016040519081016040528093929190818152602001838380828437600081840152601f19601f8201169050808301925050505050505091929192905050506102ae565b6040518082815260200191505060405180910390f35b6101976004803603602081101561013657600080fd5b810190808035906020019064010000000081111561015357600080fd5b82018360208201111561016557600080fd5b8035906020019184600183028401116401000000008311171561018757600080fd5b90919293919293905050506103bf565b005b610252600480360360208110156101af57600080fd5b81019080803590602001906401000000008111156101cc57600080fd5b8201836020820111156101de57600080fd5b8035906020019184600183028401116401000000008311171561020057600080fd5b91908080601f016020809104026020016040519081016040528093929190818152602001838380828437600081840152601f19601f820116905080830192505050505050509192919290505050610441565b604051808215151515815260200191505060405180910390f35b6102986004803603602081101561028257600080fd5b81019080803590602001909291905050506104a5565b6040518082815260200191505060405180910390f35b60006002826040516020018082805190602001908083835b602083106102e957805182526020820191506020810190506020830392506102c6565b6001836020036101000a0380198251168184511680821785525050505050509050019150506040516020818303038152906040526040518082805190602001908083835b60208310610350578051825260208201915060208101905060208303925061032d565b6001836020036101000a038019825116818451168082178552505050505050905001915050602060405180830381855afa158015610392573d6000803e3d6000fd5b5050506040513d60208110156103a757600080fd5b81019080805190602001909291905050509050919050565b600061040e83838080601f016020809104026020016040519081016040528093929190818152602001838380828437600081840152601f19601f820116905080830192505050505050506104c6565b90506000819080600181540180825580915050906001820390600052602060002001600090919290919091505550505050565b60008061044d836104c6565b905060008090505b60008054905081101561049957816000828154811061047057fe5b9060005260206000200154141561048c576001925050506104a0565b8080600101915050610455565b5060009150505b919050565b600081815481106104b257fe5b906000526020600020016000915090505481565b60006002826040516020018082805190602001908083835b6020831061050157805182526020820191506020810190506020830392506104de565b6001836020036101000a0380198251168184511680821785525050505050509050019150506040516020818303038152906040526040518082805190602001908083835b602083106105685780518252602082019150602081019050602083039250610545565b6001836020036101000a038019825116818451168082178552505050505050905001915050602060405180830381855afa1580156105aa573d6000803e3d6000fd5b5050506040513d60208110156105bf57600080fd5b8101908080519060200190929190505050905091905056fea265627a7a7231582019178eafbd66dfd32af7f427a5b61db29c7212bf34619f6f3e67a102da35ef9864736f6c63430005100032",
  "source": "pragma solidity ^0.5.0;\n\n//Contracts are equivalent to classes\ncontract ContentTracking {\n    //Private variable hash array of type bytes32\n    bytes32[] public documentArray;\n    //Pass in a document and hash\n    function hashDocument(string memory document)\n    private\n    pure\n    returns (bytes32)\n    {\n        return sha256(abi.encodePacked(document));\n    }\n    //Store hashed document\n    function storeDocument(string calldata document)\n    external\n    {\n        bytes32 hashedDocument = hashDocument(document);\n        documentArray.push(hashedDocument);\n    }\n    //Check a new document to see if contained in hashedDocument array\n    function newDocument(string memory document)\n    public\n    view\n    returns(bool)\n    {\n        bytes32 newHashedDocument = hashDocument(document);\n        for(uint256 i = 0; i < documentArray.length; i++){\n            if(documentArray[i] == newHashedDocument){\n                return true;\n            }\n        }\n        return false;\n    }\n    //Returns the hash of a submitted document, may be able to use hashDocument function as public\n    //Pure functions perform a calculation only\n    function returnHashedDocument(string memory document)\n    public\n    pure\n    returns(bytes32)\n    {\n        return sha256(abi.encodePacked(document));\n    }\n}",
  "sourcePath": "/Users/blockchain/Development/jp-morgan/vin-registry-demo/contracts/ContentTracking.sol",
  "compiler": {
    "name": "solc",
    "version": "0.5.16+commit.9c3226ce.Emscripten.clang"
  },
  "schemaVersion": "3.2.1",
  "updatedAt": "2020-08-20T16:49:23.419Z",
  "networkType": "ethereum",
  "devdoc": {
    "methods": {}
  },
  "userdoc": {
    "methods": {}
  }
}