{
  "contractName": "VehicleRegistry",
  "abi": [
    {
      "constant": true,
      "inputs": [
        {
          "internalType": "uint256",
          "name": "",
          "type": "uint256"
        }
      ],
      "name": "vehicleArray",
      "outputs": [
        {
          "internalType": "bytes32",
          "name": "",
          "type": "bytes32"
        }
      ],
      "payable": false,
      "stateMutability": "view",
      "type": "function"
    },
    {
      "constant": false,
      "inputs": [
        {
          "internalType": "string",
          "name": "vehicle",
          "type": "string"
        }
      ],
      "name": "storeVehicle",
      "outputs": [],
      "payable": false,
      "stateMutability": "nonpayable",
      "type": "function"
    },
    {
      "constant": true,
      "inputs": [
        {
          "internalType": "string",
          "name": "vehicle",
          "type": "string"
        }
      ],
      "name": "createVehicle",
      "outputs": [
        {
          "internalType": "bool",
          "name": "",
          "type": "bool"
        }
      ],
      "payable": false,
      "stateMutability": "view",
      "type": "function"
    },
    {
      "constant": true,
      "inputs": [
        {
          "internalType": "string",
          "name": "vehicle",
          "type": "string"
        }
      ],
      "name": "verifyDuplicateVIN",
      "outputs": [
        {
          "internalType": "bytes32",
          "name": "",
          "type": "bytes32"
        }
      ],
      "payable": false,
      "stateMutability": "pure",
      "type": "function"
    }
  ],
  "bytecode": "0x608060405234801561001057600080fd5b5061060c806100206000396000f3fe608060405234801561001057600080fd5b506004361061004c5760003560e01c806307da230a1461005157806320b93465146100ca5780632119c2701461010c5780632132730e146101db575b600080fd5b6100c86004803603602081101561006757600080fd5b810190808035906020019064010000000081111561008457600080fd5b82018360208201111561009657600080fd5b803590602001918460018302840111640100000000831117156100b857600080fd5b90919293919293905050506102ae565b005b6100f6600480360360208110156100e057600080fd5b8101908080359060200190929190505050610330565b6040518082815260200191505060405180910390f35b6101c56004803603602081101561012257600080fd5b810190808035906020019064010000000081111561013f57600080fd5b82018360208201111561015157600080fd5b8035906020019184600183028401116401000000008311171561017357600080fd5b91908080601f016020809104026020016040519081016040528093929190818152602001838380828437600081840152601f19601f820116905080830192505050505050509192919290505050610351565b6040518082815260200191505060405180910390f35b610294600480360360208110156101f157600080fd5b810190808035906020019064010000000081111561020e57600080fd5b82018360208201111561022057600080fd5b8035906020019184600183028401116401000000008311171561024257600080fd5b91908080601f016020809104026020016040519081016040528093929190818152602001838380828437600081840152601f19601f820116905080830192505050505050509192919290505050610462565b604051808215151515815260200191505060405180910390f35b60006102fd83838080601f016020809104026020016040519081016040528093929190818152602001838380828437600081840152601f19601f820116905080830192505050505050506104c6565b90506000819080600181540180825580915050906001820390600052602060002001600090919290919091505550505050565b6000818154811061033d57fe5b906000526020600020016000915090505481565b60006002826040516020018082805190602001908083835b6020831061038c5780518252602082019150602081019050602083039250610369565b6001836020036101000a0380198251168184511680821785525050505050509050019150506040516020818303038152906040526040518082805190602001908083835b602083106103f357805182526020820191506020810190506020830392506103d0565b6001836020036101000a038019825116818451168082178552505050505050905001915050602060405180830381855afa158015610435573d6000803e3d6000fd5b5050506040513d602081101561044a57600080fd5b81019080805190602001909291905050509050919050565b60008061046e836104c6565b905060008090505b6000805490508110156104ba57816000828154811061049157fe5b906000526020600020015414156104ad576001925050506104c1565b8080600101915050610476565b5060009150505b919050565b60006002826040516020018082805190602001908083835b6020831061050157805182526020820191506020810190506020830392506104de565b6001836020036101000a0380198251168184511680821785525050505050509050019150506040516020818303038152906040526040518082805190602001908083835b602083106105685780518252602082019150602081019050602083039250610545565b6001836020036101000a038019825116818451168082178552505050505050905001915050602060405180830381855afa1580156105aa573d6000803e3d6000fd5b5050506040513d60208110156105bf57600080fd5b8101908080519060200190929190505050905091905056fea265627a7a723158206fab96c08409a8442d29d31f933b19955c71ec9626222c60c47e0f7ebb074d3e64736f6c63430005100032",
  "source": "pragma solidity ^0.5.0;\n\n//Contracts are equivalent to classes\ncontract VehicleRegistry {\n    //Private variable hash array of type bytes32\n    bytes32[] public vehicleArray;\n    //Pass in a vehicle and hash\n    function hashVehicle(string memory vehicle)\n    private\n    pure\n    returns (bytes32)\n    {\n        return sha256(abi.encodePacked(vehicle));\n    }\n    //Store hashed vehicle\n    function storeVehicle(string calldata vehicle)\n    external\n    {\n        bytes32 hashedVehicle = hashVehicle(vehicle);\n        vehicleArray.push(hashedVehicle);\n    }\n    //Check a new vehicle to see if contained in hashedVehicle array\n    function createVehicle(string memory vehicle)\n    public\n    view\n    returns(bool)\n    {\n        bytes32 newHashedVehicle = hashVehicle(vehicle);\n        for(uint256 i = 0; i < vehicleArray.length; i++){\n            if(vehicleArray[i] == newHashedVehicle){\n                return true;\n            }\n        }\n        return false;\n    }\n    //Returns the hash of a submitted vehicle, may be able to use hashVehicle function as public\n    //Pure functions perform a calculation only\n    function verifyDuplicateVIN(string memory vehicle)\n    public\n    pure\n    returns(bytes32)\n    {\n        return sha256(abi.encodePacked(vehicle));\n    }\n}",
  "sourcePath": "/Users/blockchain/Development/jp-morgan/vin-registry-demo/contracts/VehicleRegistry.sol",
  "compiler": {
    "name": "solc",
    "version": "0.5.16+commit.9c3226ce.Emscripten.clang"
  },
  "schemaVersion": "3.2.1",
  "updatedAt": "2020-08-23T22:39:52.312Z",
  "networkType": "ethereum",
  "devdoc": {
    "methods": {}
  },
  "userdoc": {
    "methods": {}
  }
}